{
  "contractName": "Rental",
  "abi": [
    {
      "inputs": [],
      "payable": false,
      "stateMutability": "nonpayable",
      "type": "constructor"
    },
    {
      "constant": true,
      "inputs": [
        {
          "internalType": "uint256",
          "name": "",
          "type": "uint256"
        }
      ],
      "name": "rentals",
      "outputs": [
        {
          "internalType": "string",
          "name": "make",
          "type": "string"
        },
        {
          "internalType": "bool",
          "name": "isAvailable",
          "type": "bool"
        },
        {
          "internalType": "address",
          "name": "rentee",
          "type": "address"
        },
        {
          "internalType": "address",
          "name": "owner",
          "type": "address"
        },
        {
          "internalType": "uint256",
          "name": "year",
          "type": "uint256"
        },
        {
          "internalType": "string",
          "name": "licenseNumber",
          "type": "string"
        },
        {
          "internalType": "uint256",
          "name": "carId",
          "type": "uint256"
        }
      ],
      "payable": false,
      "stateMutability": "view",
      "type": "function"
    },
    {
      "constant": true,
      "inputs": [],
      "name": "getCarCount",
      "outputs": [
        {
          "internalType": "uint256",
          "name": "",
          "type": "uint256"
        }
      ],
      "payable": false,
      "stateMutability": "view",
      "type": "function"
    },
    {
      "constant": false,
      "inputs": [
        {
          "internalType": "uint256",
          "name": "carId",
          "type": "uint256"
        }
      ],
      "name": "rent",
      "outputs": [
        {
          "internalType": "bool",
          "name": "",
          "type": "bool"
        }
      ],
      "payable": false,
      "stateMutability": "nonpayable",
      "type": "function"
    },
    {
      "constant": true,
      "inputs": [
        {
          "internalType": "uint256",
          "name": "carId",
          "type": "uint256"
        }
      ],
      "name": "getRentalCarInfo",
      "outputs": [
        {
          "internalType": "string",
          "name": "make",
          "type": "string"
        },
        {
          "internalType": "string",
          "name": "license",
          "type": "string"
        },
        {
          "internalType": "address",
          "name": "owner",
          "type": "address"
        },
        {
          "internalType": "address",
          "name": "rentee",
          "type": "address"
        },
        {
          "internalType": "bool",
          "name": "available",
          "type": "bool"
        },
        {
          "internalType": "uint256",
          "name": "year",
          "type": "uint256"
        },
        {
          "internalType": "uint256",
          "name": "id",
          "type": "uint256"
        }
      ],
      "payable": false,
      "stateMutability": "view",
      "type": "function"
    },
    {
      "constant": false,
      "inputs": [
        {
          "internalType": "string",
          "name": "make",
          "type": "string"
        },
        {
          "internalType": "address",
          "name": "owner",
          "type": "address"
        },
        {
          "internalType": "string",
          "name": "licenseNumber",
          "type": "string"
        },
        {
          "internalType": "uint256",
          "name": "year",
          "type": "uint256"
        }
      ],
      "name": "addNewCar",
      "outputs": [
        {
          "internalType": "uint256",
          "name": "",
          "type": "uint256"
        }
      ],
      "payable": false,
      "stateMutability": "nonpayable",
      "type": "function"
    },
    {
      "constant": false,
      "inputs": [
        {
          "internalType": "uint256",
          "name": "carId",
          "type": "uint256"
        }
      ],
      "name": "returnCar",
      "outputs": [
        {
          "internalType": "bool",
          "name": "",
          "type": "bool"
        }
      ],
      "payable": false,
      "stateMutability": "nonpayable",
      "type": "function"
    },
    {
      "constant": false,
      "inputs": [
        {
          "internalType": "uint256",
          "name": "carId",
          "type": "uint256"
        }
      ],
      "name": "removeCar",
      "outputs": [
        {
          "internalType": "bool",
          "name": "",
          "type": "bool"
        }
      ],
      "payable": false,
      "stateMutability": "nonpayable",
      "type": "function"
    }
  ],
  "bytecode": "0x608060405260008060006101000a81548160ff021916908315150217905550600060015534801561002f57600080fd5b5033600260006101000a81548173ffffffffffffffffffffffffffffffffffffffff021916908373ffffffffffffffffffffffffffffffffffffffff160217905550611488806100806000396000f3fe608060405234801561001057600080fd5b506004361061007d5760003560e01c80636a38ddb31161005b5780636a38ddb3146102785780637456be7d146102be5780638191875b14610304578063af94a1d1146104945761007d565b806317f956e01461008257806327436b59146100c857806356b63897146100e6575b600080fd5b6100ae6004803603602081101561009857600080fd5b8101908080359060200190929190505050610626565b604051808215151515815260200191505060405180910390f35b6100d0610724565b6040518082815260200191505060405180910390f35b610112600480360360208110156100fc57600080fd5b810190808035906020019092919050505061074b565b6040518080602001806020018873ffffffffffffffffffffffffffffffffffffffff1673ffffffffffffffffffffffffffffffffffffffff1681526020018773ffffffffffffffffffffffffffffffffffffffff1673ffffffffffffffffffffffffffffffffffffffff1681526020018615151515815260200185815260200184815260200183810383528a818151815260200191508051906020019080838360005b838110156101d05780820151818401526020810190506101b5565b50505050905090810190601f1680156101fd5780820380516001836020036101000a031916815260200191505b50838103825289818151815260200191508051906020019080838360005b8381101561023657808201518184015260208101905061021b565b50505050905090810190601f1680156102635780820380516001836020036101000a031916815260200191505b50995050505050505050505060405180910390f35b6102a46004803603602081101561028e57600080fd5b8101908080359060200190929190505050610a0d565b604051808215151515815260200191505060405180910390f35b6102ea600480360360208110156102d457600080fd5b8101908080359060200190929190505050610d68565b604051808215151515815260200191505060405180910390f35b61047e6004803603608081101561031a57600080fd5b810190808035906020019064010000000081111561033757600080fd5b82018360208201111561034957600080fd5b8035906020019184600183028401116401000000008311171561036b57600080fd5b91908080601f016020809104026020016040519081016040528093929190818152602001838380828437600081840152601f19601f820116905080830192505050505050509192919290803573ffffffffffffffffffffffffffffffffffffffff169060200190929190803590602001906401000000008111156103ee57600080fd5b82018360208201111561040057600080fd5b8035906020019184600183028401116401000000008311171561042257600080fd5b91908080601f016020809104026020016040519081016040528093929190818152602001838380828437600081840152601f19601f82011690508083019250505050505050919291929080359060200190929190505050610ecd565b6040518082815260200191505060405180910390f35b6104c0600480360360208110156104aa57600080fd5b81019080803590602001909291905050506110a8565b6040518080602001881515151581526020018773ffffffffffffffffffffffffffffffffffffffff1673ffffffffffffffffffffffffffffffffffffffff1681526020018673ffffffffffffffffffffffffffffffffffffffff1673ffffffffffffffffffffffffffffffffffffffff1681526020018581526020018060200184815260200183810383528a818151815260200191508051906020019080838360005b8381101561057e578082015181840152602081019050610563565b50505050905090810190601f1680156105ab5780820380516001836020036101000a031916815260200191505b50838103825285818151815260200191508051906020019080838360005b838110156105e45780820151818401526020810190506105c9565b50505050905090810190601f1680156106115780820380516001836020036101000a031916815260200191505b50995050505050505050505060405180910390f35b60008060009054906101000a900460ff161561063e57fe5b60006003838154811061064d57fe5b906000526020600020906006020190503373ffffffffffffffffffffffffffffffffffffffff168160020160009054906101000a900473ffffffffffffffffffffffffffffffffffffffff1673ffffffffffffffffffffffffffffffffffffffff16146106b957600080fd5b60018160010160006101000a81548160ff02191690831515021790555060008160010160016101000a81548173ffffffffffffffffffffffffffffffffffffffff021916908373ffffffffffffffffffffffffffffffffffffffff1602179055506001915050919050565b60006003805490506001541415610742576003805490509050610748565b60015490505b90565b60608060008060008060008061075f610724565b90506000891015801561077157508089105b61077a57600080fd5b610782611274565b60038a8154811061078f57fe5b90600052602060002090600602016040518060e0016040529081600082018054600181600116156101000203166002900480601f0160208091040260200160405190810160405280929190818152602001828054600181600116156101000203166002900480156108415780601f1061081657610100808354040283529160200191610841565b820191906000526020600020905b81548152906001019060200180831161082457829003601f168201915b505050505081526020016001820160009054906101000a900460ff161515151581526020016001820160019054906101000a900473ffffffffffffffffffffffffffffffffffffffff1673ffffffffffffffffffffffffffffffffffffffff1673ffffffffffffffffffffffffffffffffffffffff1681526020016002820160009054906101000a900473ffffffffffffffffffffffffffffffffffffffff1673ffffffffffffffffffffffffffffffffffffffff1673ffffffffffffffffffffffffffffffffffffffff16815260200160038201548152602001600482018054600181600116156101000203166002900480601f0160208091040260200160405190810160405280929190818152602001828054600181600116156101000203166002900480156109b45780601f10610989576101008083540402835291602001916109b4565b820191906000526020600020905b81548152906001019060200180831161099757829003601f168201915b50505050508152602001600582015481525050905080600001518160a0015182606001518360400151846020015185608001518660c0015186965085955098509850985098509850985098505050919395979092949650565b60008060009054906101000a900460ff1615610a2557fe5b600060038381548110610a3457fe5b906000526020600020906006020190503373ffffffffffffffffffffffffffffffffffffffff168160020160009054906101000a900473ffffffffffffffffffffffffffffffffffffffff1673ffffffffffffffffffffffffffffffffffffffff16148015610ab85750600115158160010160009054906101000a900460ff161515145b610ac157600080fd5b6000610acb610724565b9050808410610adf57600092505050610d63565b60008490505b60018203811015610c985760036001820181548110610b0057fe5b906000526020600020906006020160038281548110610b1b57fe5b906000526020600020906006020160008201816000019080546001816001161561010002031660029004610b509291906112df565b506001820160009054906101000a900460ff168160010160006101000a81548160ff0219169083151502179055506001820160019054906101000a900473ffffffffffffffffffffffffffffffffffffffff168160010160016101000a81548173ffffffffffffffffffffffffffffffffffffffff021916908373ffffffffffffffffffffffffffffffffffffffff1602179055506002820160009054906101000a900473ffffffffffffffffffffffffffffffffffffffff168160020160006101000a81548173ffffffffffffffffffffffffffffffffffffffff021916908373ffffffffffffffffffffffffffffffffffffffff1602179055506003820154816003015560048201816004019080546001816001161561010002031660029004610c7d9291906112df565b50600582015481600501559050508080600101915050610ae5565b5060036001820381548110610ca957fe5b906000526020600020906006020160008082016000610cc89190611366565b6001820160006101000a81549060ff02191690556001820160016101000a81549073ffffffffffffffffffffffffffffffffffffffff02191690556002820160006101000a81549073ffffffffffffffffffffffffffffffffffffffff02191690556003820160009055600482016000610d429190611366565b60058201600090555050600180600082825403925050819055506001925050505b919050565b60008060038381548110610d7857fe5b906000526020600020906006020190506000809054906101000a900460ff1615610d9e57fe5b3373ffffffffffffffffffffffffffffffffffffffff168160020160009054906101000a900473ffffffffffffffffffffffffffffffffffffffff1673ffffffffffffffffffffffffffffffffffffffff161415610dfb57600080fd5b6000610e05610724565b905060008410158015610e1757508084105b610e2057600080fd5b600060038581548110610e2f57fe5b90600052602060002090600602019050600115158160010160009054906101000a900460ff16151514610e6157600080fd5b338160010160016101000a81548173ffffffffffffffffffffffffffffffffffffffff021916908373ffffffffffffffffffffffffffffffffffffffff16021790555060008160010160006101000a81548160ff02191690831515021790555060019350505050919050565b60008060009054906101000a900460ff1615610ee557fe5b6000610eef610724565b9050610ef9611274565b6040518060e00160405280888152602001600115158152602001600073ffffffffffffffffffffffffffffffffffffffff1681526020018773ffffffffffffffffffffffffffffffffffffffff168152602001858152602001868152602001838152509050600381908060018154018082558091505090600182039060005260206000209060060201600090919290919091506000820151816000019080519060200190610fa89291906113ae565b5060208201518160010160006101000a81548160ff02191690831515021790555060408201518160010160016101000a81548173ffffffffffffffffffffffffffffffffffffffff021916908373ffffffffffffffffffffffffffffffffffffffff16021790555060608201518160020160006101000a81548173ffffffffffffffffffffffffffffffffffffffff021916908373ffffffffffffffffffffffffffffffffffffffff1602179055506080820151816003015560a082015181600401908051906020019061107d9291906113ae565b5060c08201518160050155505050600180600082825401925050819055508192505050949350505050565b600381815481106110b557fe5b9060005260206000209060060201600091509050806000018054600181600116156101000203166002900480601f0160208091040260200160405190810160405280929190818152602001828054600181600116156101000203166002900480156111615780601f1061113657610100808354040283529160200191611161565b820191906000526020600020905b81548152906001019060200180831161114457829003601f168201915b5050505050908060010160009054906101000a900460ff16908060010160019054906101000a900473ffffffffffffffffffffffffffffffffffffffff16908060020160009054906101000a900473ffffffffffffffffffffffffffffffffffffffff1690806003015490806004018054600181600116156101000203166002900480601f0160208091040260200160405190810160405280929190818152602001828054600181600116156101000203166002900480156112645780601f1061123957610100808354040283529160200191611264565b820191906000526020600020905b81548152906001019060200180831161124757829003601f168201915b5050505050908060050154905087565b6040518060e0016040528060608152602001600015158152602001600073ffffffffffffffffffffffffffffffffffffffff168152602001600073ffffffffffffffffffffffffffffffffffffffff1681526020016000815260200160608152602001600081525090565b828054600181600116156101000203166002900490600052602060002090601f016020900481019282601f106113185780548555611355565b8280016001018555821561135557600052602060002091601f016020900482015b82811115611354578254825591600101919060010190611339565b5b509050611362919061142e565b5090565b50805460018160011615610100020316600290046000825580601f1061138c57506113ab565b601f0160209004906000526020600020908101906113aa919061142e565b5b50565b828054600181600116156101000203166002900490600052602060002090601f016020900481019282601f106113ef57805160ff191683800117855561141d565b8280016001018555821561141d579182015b8281111561141c578251825591602001919060010190611401565b5b50905061142a919061142e565b5090565b61145091905b8082111561144c576000816000905550600101611434565b5090565b9056fea265627a7a72315820d4aba0027d6eab009e0153145162b98ea0ec49081a6bc24dbc8330ba5180f31264736f6c63430005100032",
  "source": "pragma solidity ^0.5.0;\n\ncontract Rental {\n\n    struct Car {\n        string make; // Car Model\n        bool isAvailable;  // if true, this car can be rented out\n        address rentee; // person delegated to\n        address owner; //Owner of Car\n        uint year;   // index of the voted proposal\n        string licenseNumber; // Car identification\n        uint carId; // index of car to be rented \n    }\n    \n    bool private stopped = false;\n    uint totCars = 0;\n    address private manager;\n\n     // The constructor. We assign the manager to be the creator of the contract.It could be enhanced to support passing maangement off.\n    \n    constructor() public  \n    {\n        manager = msg.sender;\n    }\n\n    //Check if sender isAdmin, this function alone could be added to multiple functions for manager only method calls\n    modifier isAdmin() {\n        assert(msg.sender == manager);\n        _;\n    }\n    \n\n\n    //Number of Cars available for rent\n    Car[] public rentals;                   //*****\n\n    //Return Total Number of Cars\n    function getCarCount() public view returns(uint) {\n        if(totCars == rentals.length)\n        return rentals.length;\n        else\n        return totCars;\n    }\n\n    //Renting a car \n    function rent(uint carId) public returns (bool) {\n\n        Car storage specificCar = rentals[carId];\n       \n       //Never Ever want to be false, therefore we use assert\n       assert(!stopped); \n\n       require(specificCar.owner != msg.sender);\n        \n        \n       //Validate cardId is within array\n      uint totalCars = getCarCount();\n      \n    //There must be a car to rent and ID # must be within range \n      require(carId >= 0 && carId < totalCars);\n    \n    //Reference to the car that will be rented \n    Car storage carToBeRented = rentals[carId];         //******\n\n    //Car must be available\n    require(carToBeRented.isAvailable == true);\n      \n      //Assign Rentee to Sender\n      carToBeRented.rentee = msg.sender;\n      \n      //Remove Availability\n      carToBeRented.isAvailable = false; \n      \n     //Return Success\n      return true;\n    }\n\n    // Retrieving the car data necessary for user\n    function getRentalCarInfo(uint carId) public view returns (string memory make, string memory license, address owner, address rentee, bool available, uint year, uint id) {\n      \n      uint totalCars = getCarCount();\n      require(carId >= 0 && carId < totalCars);\n      \n      //Get specified car \n      Car memory specificCar = rentals[carId];\n      \n      //Return data considered in rental process\n      return (specificCar.make,specificCar.licenseNumber, specificCar.owner ,specificCar.rentee, specificCar.isAvailable, specificCar.year , specificCar.carId);\n    }\n\n    //Add RentableCar\n    function addNewCar(string memory make, address owner, string memory licenseNumber, uint year) public returns (uint) {\n        assert(!stopped); \n        //Create car object within function\n        \n        //Current # of cars\n        uint count = getCarCount();\n        //Increment Count\n        //Construct Car Object\n        Car memory newCar = Car(make,true, address(0) , owner, year,licenseNumber,count);\n        \n        //Add to Array\n        rentals.push(newCar);\n\n        //Increment total cars \n        totCars += 1;\n        \n        return count;\n    }\n    \n    //Allow Car Owner to Mark car as returned\n    function returnCar(uint carId) public  returns (bool) {\n        assert(!stopped); \n        \n        //Get Specific car\n        Car storage specificCar = rentals[carId];\n        require(specificCar.owner == msg.sender);\n        //Make car available again\n        specificCar.isAvailable = true;\n        //Remove previous rentee\n        specificCar.rentee = address(0);\n        \n        //Return Success\n        return true;\n    }\n\n    function removeCar(uint carId) public returns (bool) {\n        assert(!stopped);\n\n        //Get Specific Car\n        Car storage specificCar = rentals[carId];\n        require(specificCar.owner == msg.sender && specificCar.isAvailable == true);\n        //Get total cars listed\n        uint n = getCarCount();\n        if(carId >= n) return false;\n\n        // Loop to remove car and move elements by 1\n        for(uint i = carId; i< n-1 ; i++){\n            rentals[i] = rentals[i+1];\n        }\n        \n        // Delete the car with carID\n        delete rentals[n-1];\n        totCars -=1 ;\n        return true;\n    }\n\n}",
  "sourcePath": "/home/rajatrc1705/Projects/CarRental/Car-Rental-DApp/contracts/Rental.sol",
  "compiler": {
    "name": "solc",
    "version": "0.5.16+commit.9c3226ce.Emscripten.clang"
  },
  "schemaVersion": "3.4.7",
  "updatedAt": "2022-04-12T12:41:33.371Z",
  "networkType": "ethereum",
  "devdoc": {
    "methods": {}
  },
  "userdoc": {
    "methods": {}
  }
}