{
  "contractName": "Rental",
  "abi": [
    {
      "constant": true,
      "inputs": [
        {
          "name": "",
          "type": "uint256"
        }
      ],
      "name": "rentals",
      "outputs": [
        {
          "name": "make",
          "type": "string"
        },
        {
          "name": "isAvailable",
          "type": "bool"
        },
        {
          "name": "rentee",
          "type": "address"
        },
        {
          "name": "owner",
          "type": "address"
        },
        {
          "name": "year",
          "type": "uint256"
        },
        {
          "name": "licenseNumber",
          "type": "string"
        },
        {
          "name": "carId",
          "type": "uint256"
        }
      ],
      "payable": false,
      "stateMutability": "view",
      "type": "function",
      "signature": "0xaf94a1d1"
    },
    {
      "inputs": [],
      "payable": false,
      "stateMutability": "nonpayable",
      "type": "constructor",
      "signature": "constructor"
    },
    {
      "constant": true,
      "inputs": [],
      "name": "getStopped",
      "outputs": [
        {
          "name": "",
          "type": "bool"
        }
      ],
      "payable": false,
      "stateMutability": "view",
      "type": "function",
      "signature": "0x197419d5"
    },
    {
      "constant": false,
      "inputs": [],
      "name": "toggleContractActive",
      "outputs": [],
      "payable": false,
      "stateMutability": "nonpayable",
      "type": "function",
      "signature": "0x1385d24c"
    },
    {
      "constant": true,
      "inputs": [],
      "name": "getCarCount",
      "outputs": [
        {
          "name": "",
          "type": "uint256"
        }
      ],
      "payable": false,
      "stateMutability": "view",
      "type": "function",
      "signature": "0x27436b59"
    },
    {
      "constant": false,
      "inputs": [
        {
          "name": "carId",
          "type": "uint256"
        }
      ],
      "name": "rent",
      "outputs": [
        {
          "name": "",
          "type": "bool"
        }
      ],
      "payable": false,
      "stateMutability": "nonpayable",
      "type": "function",
      "signature": "0x7456be7d"
    },
    {
      "constant": true,
      "inputs": [
        {
          "name": "carId",
          "type": "uint256"
        }
      ],
      "name": "getRentalCarInfo",
      "outputs": [
        {
          "name": "",
          "type": "string"
        },
        {
          "name": "",
          "type": "string"
        },
        {
          "name": "",
          "type": "address"
        },
        {
          "name": "",
          "type": "address"
        },
        {
          "name": "",
          "type": "bool"
        },
        {
          "name": "",
          "type": "uint256"
        },
        {
          "name": "",
          "type": "uint256"
        }
      ],
      "payable": false,
      "stateMutability": "view",
      "type": "function",
      "signature": "0x56b63897"
    },
    {
      "constant": false,
      "inputs": [
        {
          "name": "make",
          "type": "string"
        },
        {
          "name": "owner",
          "type": "address"
        },
        {
          "name": "licenseNumber",
          "type": "string"
        },
        {
          "name": "year",
          "type": "uint256"
        }
      ],
      "name": "addNewCar",
      "outputs": [
        {
          "name": "",
          "type": "uint256"
        }
      ],
      "payable": false,
      "stateMutability": "nonpayable",
      "type": "function",
      "signature": "0x8191875b"
    },
    {
      "constant": false,
      "inputs": [
        {
          "name": "carId",
          "type": "uint256"
        }
      ],
      "name": "returnCar",
      "outputs": [
        {
          "name": "",
          "type": "bool"
        }
      ],
      "payable": false,
      "stateMutability": "nonpayable",
      "type": "function",
      "signature": "0x17f956e0"
    }
  ],
  "bytecode": "0x608060405260008060006101000a81548160ff02191690831515021790555034801561002a57600080fd5b5033600060016101000a81548173ffffffffffffffffffffffffffffffffffffffff021916908373ffffffffffffffffffffffffffffffffffffffff1602179055506110c08061007b6000396000f3fe60806040526004361061008e576000357c0100000000000000000000000000000000000000000000000000000000900463ffffffff1680631385d24c1461009357806317f956e0146100aa578063197419d5146100fd57806327436b591461012c57806356b63897146101575780637456be7d146102f65780638191875b14610349578063af94a1d1146104e6575b600080fd5b34801561009f57600080fd5b506100a8610685565b005b3480156100b657600080fd5b506100e3600480360360208110156100cd57600080fd5b8101908080359060200190929190505050610708565b604051808215151515815260200191505060405180910390f35b34801561010957600080fd5b5061011261080c565b604051808215151515815260200191505060405180910390f35b34801561013857600080fd5b50610141610822565b6040518082815260200191505060405180910390f35b34801561016357600080fd5b506101906004803603602081101561017a57600080fd5b810190808035906020019092919050505061082f565b6040518080602001806020018873ffffffffffffffffffffffffffffffffffffffff1673ffffffffffffffffffffffffffffffffffffffff1681526020018773ffffffffffffffffffffffffffffffffffffffff1673ffffffffffffffffffffffffffffffffffffffff1681526020018615151515815260200185815260200184815260200183810383528a818151815260200191508051906020019080838360005b8381101561024e578082015181840152602081019050610233565b50505050905090810190601f16801561027b5780820380516001836020036101000a031916815260200191505b50838103825289818151815260200191508051906020019080838360005b838110156102b4578082015181840152602081019050610299565b50505050905090810190601f1680156102e15780820380516001836020036101000a031916815260200191505b50995050505050505050505060405180910390f35b34801561030257600080fd5b5061032f6004803603602081101561031957600080fd5b8101908080359060200190929190505050610af6565b604051808215151515815260200191505060405180910390f35b34801561035557600080fd5b506104d06004803603608081101561036c57600080fd5b810190808035906020019064010000000081111561038957600080fd5b82018360208201111561039b57600080fd5b803590602001918460018302840111640100000000831117156103bd57600080fd5b91908080601f016020809104026020016040519081016040528093929190818152602001838380828437600081840152601f19601f820116905080830192505050505050509192919290803573ffffffffffffffffffffffffffffffffffffffff1690602001909291908035906020019064010000000081111561044057600080fd5b82018360208201111561045257600080fd5b8035906020019184600183028401116401000000008311171561047457600080fd5b91908080601f016020809104026020016040519081016040528093929190818152602001838380828437600081840152601f19601f82011690508083019250505050505050919291929080359060200190929190505050610be7565b6040518082815260200191505060405180910390f35b3480156104f257600080fd5b5061051f6004803603602081101561050957600080fd5b8101908080359060200190929190505050610db5565b6040518080602001881515151581526020018773ffffffffffffffffffffffffffffffffffffffff1673ffffffffffffffffffffffffffffffffffffffff1681526020018673ffffffffffffffffffffffffffffffffffffffff1673ffffffffffffffffffffffffffffffffffffffff1681526020018581526020018060200184815260200183810383528a818151815260200191508051906020019080838360005b838110156105dd5780820151818401526020810190506105c2565b50505050905090810190601f16801561060a5780820380516001836020036101000a031916815260200191505b50838103825285818151815260200191508051906020019080838360005b83811015610643578082015181840152602081019050610628565b50505050905090810190601f1680156106705780820380516001836020036101000a031916815260200191505b50995050505050505050505060405180910390f35b600060019054906101000a900473ffffffffffffffffffffffffffffffffffffffff1673ffffffffffffffffffffffffffffffffffffffff163373ffffffffffffffffffffffffffffffffffffffff161415156106de57fe5b6000809054906101000a900460ff16156000806101000a81548160ff021916908315150217905550565b60008060009054906101000a900460ff1615151561072257fe5b600060018381548110151561073357fe5b906000526020600020906006020190503373ffffffffffffffffffffffffffffffffffffffff168160020160009054906101000a900473ffffffffffffffffffffffffffffffffffffffff1673ffffffffffffffffffffffffffffffffffffffff161415156107a157600080fd5b60018160010160006101000a81548160ff02191690831515021790555060008160010160016101000a81548173ffffffffffffffffffffffffffffffffffffffff021916908373ffffffffffffffffffffffffffffffffffffffff1602179055506001915050919050565b60008060009054906101000a900460ff16905090565b6000600180549050905090565b606080600080600080600080610843610822565b90506000891015801561085557508089105b151561086057600080fd5b610868610f83565b60018a81548110151561087757fe5b906000526020600020906006020160e06040519081016040529081600082018054600181600116156101000203166002900480601f01602080910402602001604051908101604052809291908181526020018280546001816001161561010002031660029004801561092a5780601f106108ff5761010080835404028352916020019161092a565b820191906000526020600020905b81548152906001019060200180831161090d57829003601f168201915b505050505081526020016001820160009054906101000a900460ff161515151581526020016001820160019054906101000a900473ffffffffffffffffffffffffffffffffffffffff1673ffffffffffffffffffffffffffffffffffffffff1673ffffffffffffffffffffffffffffffffffffffff1681526020016002820160009054906101000a900473ffffffffffffffffffffffffffffffffffffffff1673ffffffffffffffffffffffffffffffffffffffff1673ffffffffffffffffffffffffffffffffffffffff16815260200160038201548152602001600482018054600181600116156101000203166002900480601f016020809104026020016040519081016040528092919081815260200182805460018160011615610100020316600290048015610a9d5780601f10610a7257610100808354040283529160200191610a9d565b820191906000526020600020905b815481529060010190602001808311610a8057829003601f168201915b50505050508152602001600582015481525050905080600001518160a0015182606001518360400151846020015185608001518660c0015186965085955098509850985098509850985098505050919395979092949650565b60008060009054906101000a900460ff16151515610b1057fe5b6000610b1a610822565b905060008310158015610b2c57508083105b1515610b3757600080fd5b6000600184815481101515610b4857fe5b90600052602060002090600602019050600115158160010160009054906101000a900460ff161515141515610b7c57600080fd5b338160010160016101000a81548173ffffffffffffffffffffffffffffffffffffffff021916908373ffffffffffffffffffffffffffffffffffffffff16021790555060008160010160006101000a81548160ff021916908315150217905550600192505050919050565b60008060009054906101000a900460ff16151515610c0157fe5b6000610c0b610822565b9050610c15610f83565b60e060405190810160405280888152602001600115158152602001600073ffffffffffffffffffffffffffffffffffffffff1681526020018773ffffffffffffffffffffffffffffffffffffffff168152602001858152602001868152602001838152509050600181908060018154018082558091505090600182039060005260206000209060060201600090919290919091506000820151816000019080519060200190610cc5929190610fef565b5060208201518160010160006101000a81548160ff02191690831515021790555060408201518160010160016101000a81548173ffffffffffffffffffffffffffffffffffffffff021916908373ffffffffffffffffffffffffffffffffffffffff16021790555060608201518160020160006101000a81548173ffffffffffffffffffffffffffffffffffffffff021916908373ffffffffffffffffffffffffffffffffffffffff1602179055506080820151816003015560a0820151816004019080519060200190610d9a929190610fef565b5060c082015181600501555050508192505050949350505050565b600181815481101515610dc457fe5b9060005260206000209060060201600091509050806000018054600181600116156101000203166002900480601f016020809104026020016040519081016040528092919081815260200182805460018160011615610100020316600290048015610e705780601f10610e4557610100808354040283529160200191610e70565b820191906000526020600020905b815481529060010190602001808311610e5357829003601f168201915b5050505050908060010160009054906101000a900460ff16908060010160019054906101000a900473ffffffffffffffffffffffffffffffffffffffff16908060020160009054906101000a900473ffffffffffffffffffffffffffffffffffffffff1690806003015490806004018054600181600116156101000203166002900480601f016020809104026020016040519081016040528092919081815260200182805460018160011615610100020316600290048015610f735780601f10610f4857610100808354040283529160200191610f73565b820191906000526020600020905b815481529060010190602001808311610f5657829003601f168201915b5050505050908060050154905087565b60e06040519081016040528060608152602001600015158152602001600073ffffffffffffffffffffffffffffffffffffffff168152602001600073ffffffffffffffffffffffffffffffffffffffff1681526020016000815260200160608152602001600081525090565b828054600181600116156101000203166002900490600052602060002090601f016020900481019282601f1061103057805160ff191683800117855561105e565b8280016001018555821561105e579182015b8281111561105d578251825591602001919060010190611042565b5b50905061106b919061106f565b5090565b61109191905b8082111561108d576000816000905550600101611075565b5090565b9056fea165627a7a72305820d79f96045b0d0c0eca3796091c4f8efb8b1e6a1179658783b3998d11b649961c0029",
  "source": "pragma solidity ^0.5.0;\n\nimport {CarLib} from \"./CarLib.sol\";\n\ncontract Rental {\n    \n    bool private stopped = false;\n    address private manager;\n\n     // The constructor. We assign the manager to be the creator of the contract.It could be enhanced to support passing maangement off.\n    constructor() public  \n    {\n        manager = msg.sender;\n    }\n\n    //Check if sender isAdmin, this function alone could be added to multiple functions for manager only method calls\n    modifier isAdmin() {\n        assert(msg.sender == manager);\n        _;\n    }\n    \n    //Check if the contracts features are deactivated\n    function getStopped() public view returns(bool) { return stopped; }\n\n    \n    function toggleContractActive() isAdmin public {\n    // You can add an additional modifier that restricts stopping a contract to be based on another action, such as a vote of users\n        stopped = !stopped;\n    }\n\n\n    //Number of Cars available for rent\n    CarLib.Car[] public rentals;\n\n    //Return Total Number of Cars\n    function getCarCount() public view returns(uint) {\n        return rentals.length;\n    }\n\n    //Renting a car \n    function rent(uint carId) public returns (bool) {\n       \n       //Never Ever want to be false, therefore we use assert\n       assert(!stopped); \n        \n        \n       //Validate cardId is within array\n      uint totalCars = getCarCount();\n      \n    //There must be a car to rent and ID # must be within range \n      require(carId >= 0 && carId < totalCars);\n    \n    //Reference to the car that will be rented \n    CarLib.Car storage carToBeRented = rentals[carId];\n    \n    //Car must be available\n    require(carToBeRented.isAvailable == true);\n      \n      //Assign Rentee to Sender\n      carToBeRented.rentee = msg.sender;\n      \n      //Remove Availability\n      carToBeRented.isAvailable = false; \n      \n     //Return Success\n      return true;\n    }\n\n    // Retrieving the car data necessary for user\n    function getRentalCarInfo(uint carId) public view returns (string memory, string memory, address, address, bool, uint, uint) {\n      \n      uint totalCars = getCarCount();\n      require(carId >= 0 && carId < totalCars);\n      \n      //Get specified car \n      CarLib.Car memory specificCar = rentals[carId];\n      \n      //Return data considered in rental process\n      return (specificCar.make,specificCar.licenseNumber, specificCar.owner ,specificCar.rentee, specificCar.isAvailable, specificCar.year , specificCar.carId);\n    }\n\n    //Add RentableCar\n    function addNewCar(string memory make, address owner, string memory licenseNumber, uint year) public returns (uint) {\n        assert(!stopped); \n        //Create car object within function\n        \n        //Current # of cars\n        uint count = getCarCount();\n        //Increment Count\n        //Construct Car Object\n        CarLib.Car memory newCar = CarLib.Car(make,true, address(0) , owner, year,licenseNumber,count);\n        \n        //Add to Array\n        rentals.push(newCar);\n        \n         return count;\n    }\n    \n    //Allow Car Owner to Mark car as returned\n    function returnCar(uint carId) public  returns (bool) {\n        assert(!stopped); \n        \n        //Get Specific car\n        CarLib.Car storage specificCar = rentals[carId];\n        require(specificCar.owner == msg.sender);\n        //Make car available again\n        specificCar.isAvailable = true;\n        //Remove previous rentee\n        specificCar.rentee = address(0);\n        \n        //Return Success\n        return true;\n    }\n\n}",
  "sourcePath": "D:/Car-Rental-DApp/contracts/Rental.sol",
  "compiler": {
    "name": "solc",
    "version": "0.5.0+commit.1d4f565a.Emscripten.clang"
  },
  "schemaVersion": "3.0.1",
  "updatedAt": "2022-04-11T14:31:29.154Z",
  "devdoc": {
    "methods": {}
  },
  "userdoc": {
    "methods": {}
  }
}