{
  "contractName": "Rental",
  "abi": [
    {
      "constant": true,
      "inputs": [
        {
          "name": "",
          "type": "uint256"
        }
      ],
      "name": "rentals",
      "outputs": [
        {
          "name": "make",
          "type": "string"
        },
        {
          "name": "isAvailable",
          "type": "bool"
        },
        {
          "name": "rentee",
          "type": "address"
        },
        {
          "name": "owner",
          "type": "address"
        },
        {
          "name": "year",
          "type": "uint256"
        },
        {
          "name": "licenseNumber",
          "type": "string"
        },
        {
          "name": "carId",
          "type": "uint256"
        }
      ],
      "payable": false,
      "stateMutability": "view",
      "type": "function",
      "signature": "0xaf94a1d1"
    },
    {
      "inputs": [],
      "payable": false,
      "stateMutability": "nonpayable",
      "type": "constructor",
      "signature": "constructor"
    },
    {
      "constant": true,
      "inputs": [],
      "name": "getCarCount",
      "outputs": [
        {
          "name": "",
          "type": "uint256"
        }
      ],
      "payable": false,
      "stateMutability": "view",
      "type": "function",
      "signature": "0x27436b59"
    },
    {
      "constant": false,
      "inputs": [
        {
          "name": "carId",
          "type": "uint256"
        }
      ],
      "name": "rent",
      "outputs": [
        {
          "name": "",
          "type": "bool"
        }
      ],
      "payable": false,
      "stateMutability": "nonpayable",
      "type": "function",
      "signature": "0x7456be7d"
    },
    {
      "constant": true,
      "inputs": [
        {
          "name": "carId",
          "type": "uint256"
        }
      ],
      "name": "getRentalCarInfo",
      "outputs": [
        {
          "name": "make",
          "type": "string"
        },
        {
          "name": "license",
          "type": "string"
        },
        {
          "name": "owner",
          "type": "address"
        },
        {
          "name": "rentee",
          "type": "address"
        },
        {
          "name": "available",
          "type": "bool"
        },
        {
          "name": "year",
          "type": "uint256"
        },
        {
          "name": "id",
          "type": "uint256"
        }
      ],
      "payable": false,
      "stateMutability": "view",
      "type": "function",
      "signature": "0x56b63897"
    },
    {
      "constant": false,
      "inputs": [
        {
          "name": "make",
          "type": "string"
        },
        {
          "name": "owner",
          "type": "address"
        },
        {
          "name": "licenseNumber",
          "type": "string"
        },
        {
          "name": "year",
          "type": "uint256"
        }
      ],
      "name": "addNewCar",
      "outputs": [
        {
          "name": "",
          "type": "uint256"
        }
      ],
      "payable": false,
      "stateMutability": "nonpayable",
      "type": "function",
      "signature": "0x8191875b"
    },
    {
      "constant": false,
      "inputs": [
        {
          "name": "carId",
          "type": "uint256"
        }
      ],
      "name": "returnCar",
      "outputs": [
        {
          "name": "",
          "type": "bool"
        }
      ],
      "payable": false,
      "stateMutability": "nonpayable",
      "type": "function",
      "signature": "0x17f956e0"
    },
    {
      "constant": false,
      "inputs": [
        {
          "name": "carId",
          "type": "uint256"
        }
      ],
      "name": "removeCar",
      "outputs": [
        {
          "name": "",
          "type": "bool"
        }
      ],
      "payable": false,
      "stateMutability": "nonpayable",
      "type": "function",
      "signature": "0x6a38ddb3"
    }
  ],
  "bytecode": "0x608060405260008060006101000a81548160ff021916908315150217905550600060015534801561002f57600080fd5b5033600260006101000a81548173ffffffffffffffffffffffffffffffffffffffff021916908373ffffffffffffffffffffffffffffffffffffffff16021790555061150b806100806000396000f3fe608060405260043610610083576000357c0100000000000000000000000000000000000000000000000000000000900463ffffffff16806317f956e01461008857806327436b59146100db57806356b63897146101065780636a38ddb3146102a55780637456be7d146102f85780638191875b1461034b578063af94a1d1146104e8575b600080fd5b34801561009457600080fd5b506100c1600480360360208110156100ab57600080fd5b8101908080359060200190929190505050610687565b604051808215151515815260200191505060405180910390f35b3480156100e757600080fd5b506100f061078b565b6040518082815260200191505060405180910390f35b34801561011257600080fd5b5061013f6004803603602081101561012957600080fd5b81019080803590602001909291905050506107b2565b6040518080602001806020018873ffffffffffffffffffffffffffffffffffffffff1673ffffffffffffffffffffffffffffffffffffffff1681526020018773ffffffffffffffffffffffffffffffffffffffff1673ffffffffffffffffffffffffffffffffffffffff1681526020018615151515815260200185815260200184815260200183810383528a818151815260200191508051906020019080838360005b838110156101fd5780820151818401526020810190506101e2565b50505050905090810190601f16801561022a5780820380516001836020036101000a031916815260200191505b50838103825289818151815260200191508051906020019080838360005b83811015610263578082015181840152602081019050610248565b50505050905090810190601f1680156102905780820380516001836020036101000a031916815260200191505b50995050505050505050505060405180910390f35b3480156102b157600080fd5b506102de600480360360208110156102c857600080fd5b8101908080359060200190929190505050610a79565b604051808215151515815260200191505060405180910390f35b34801561030457600080fd5b506103316004803603602081101561031b57600080fd5b8101908080359060200190929190505050610de2565b604051808215151515815260200191505060405180910390f35b34801561035757600080fd5b506104d26004803603608081101561036e57600080fd5b810190808035906020019064010000000081111561038b57600080fd5b82018360208201111561039d57600080fd5b803590602001918460018302840111640100000000831117156103bf57600080fd5b91908080601f016020809104026020016040519081016040528093929190818152602001838380828437600081840152601f19601f820116905080830192505050505050509192919290803573ffffffffffffffffffffffffffffffffffffffff1690602001909291908035906020019064010000000081111561044257600080fd5b82018360208201111561045457600080fd5b8035906020019184600183028401116401000000008311171561047657600080fd5b91908080601f016020809104026020016040519081016040528093929190818152602001838380828437600081840152601f19601f82011690508083019250505050505050919291929080359060200190929190505050610f53565b6040518082815260200191505060405180910390f35b3480156104f457600080fd5b506105216004803603602081101561050b57600080fd5b8101908080359060200190929190505050611131565b6040518080602001881515151581526020018773ffffffffffffffffffffffffffffffffffffffff1673ffffffffffffffffffffffffffffffffffffffff1681526020018673ffffffffffffffffffffffffffffffffffffffff1673ffffffffffffffffffffffffffffffffffffffff1681526020018581526020018060200184815260200183810383528a818151815260200191508051906020019080838360005b838110156105df5780820151818401526020810190506105c4565b50505050905090810190601f16801561060c5780820380516001836020036101000a031916815260200191505b50838103825285818151815260200191508051906020019080838360005b8381101561064557808201518184015260208101905061062a565b50505050905090810190601f1680156106725780820380516001836020036101000a031916815260200191505b50995050505050505050505060405180910390f35b60008060009054906101000a900460ff161515156106a157fe5b60006003838154811015156106b257fe5b906000526020600020906006020190503373ffffffffffffffffffffffffffffffffffffffff168160020160009054906101000a900473ffffffffffffffffffffffffffffffffffffffff1673ffffffffffffffffffffffffffffffffffffffff1614151561072057600080fd5b60018160010160006101000a81548160ff02191690831515021790555060008160010160016101000a81548173ffffffffffffffffffffffffffffffffffffffff021916908373ffffffffffffffffffffffffffffffffffffffff1602179055506001915050919050565b600060038054905060015414156107a95760038054905090506107af565b60015490505b90565b6060806000806000806000806107c661078b565b9050600089101580156107d857508089105b15156107e357600080fd5b6107eb6112ff565b60038a8154811015156107fa57fe5b906000526020600020906006020160e06040519081016040529081600082018054600181600116156101000203166002900480601f0160208091040260200160405190810160405280929190818152602001828054600181600116156101000203166002900480156108ad5780601f10610882576101008083540402835291602001916108ad565b820191906000526020600020905b81548152906001019060200180831161089057829003601f168201915b505050505081526020016001820160009054906101000a900460ff161515151581526020016001820160019054906101000a900473ffffffffffffffffffffffffffffffffffffffff1673ffffffffffffffffffffffffffffffffffffffff1673ffffffffffffffffffffffffffffffffffffffff1681526020016002820160009054906101000a900473ffffffffffffffffffffffffffffffffffffffff1673ffffffffffffffffffffffffffffffffffffffff1673ffffffffffffffffffffffffffffffffffffffff16815260200160038201548152602001600482018054600181600116156101000203166002900480601f016020809104026020016040519081016040528092919081815260200182805460018160011615610100020316600290048015610a205780601f106109f557610100808354040283529160200191610a20565b820191906000526020600020905b815481529060010190602001808311610a0357829003601f168201915b50505050508152602001600582015481525050905080600001518160a0015182606001518360400151846020015185608001518660c0015186965085955098509850985098509850985098505050919395979092949650565b60008060009054906101000a900460ff16151515610a9357fe5b6000600383815481101515610aa457fe5b906000526020600020906006020190503373ffffffffffffffffffffffffffffffffffffffff168160020160009054906101000a900473ffffffffffffffffffffffffffffffffffffffff1673ffffffffffffffffffffffffffffffffffffffff16148015610b285750600115158160010160009054906101000a900460ff161515145b1515610b3357600080fd5b6000610b3d61078b565b90508084101515610b5357600092505050610ddd565b60008490505b60018203811015610d1057600360018201815481101515610b7657fe5b9060005260206000209060060201600382815481101515610b9357fe5b906000526020600020906006020160008201816000019080546001816001161561010002031660029004610bc892919061136b565b506001820160009054906101000a900460ff168160010160006101000a81548160ff0219169083151502179055506001820160019054906101000a900473ffffffffffffffffffffffffffffffffffffffff168160010160016101000a81548173ffffffffffffffffffffffffffffffffffffffff021916908373ffffffffffffffffffffffffffffffffffffffff1602179055506002820160009054906101000a900473ffffffffffffffffffffffffffffffffffffffff168160020160006101000a81548173ffffffffffffffffffffffffffffffffffffffff021916908373ffffffffffffffffffffffffffffffffffffffff1602179055506003820154816003015560048201816004019080546001816001161561010002031660029004610cf592919061136b565b50600582015481600501559050508080600101915050610b59565b50600360018203815481101515610d2357fe5b906000526020600020906006020160008082016000610d4291906113f2565b6001820160006101000a81549060ff02191690556001820160016101000a81549073ffffffffffffffffffffffffffffffffffffffff02191690556002820160006101000a81549073ffffffffffffffffffffffffffffffffffffffff02191690556003820160009055600482016000610dbc91906113f2565b60058201600090555050600180600082825403925050819055506001925050505b919050565b600080600383815481101515610df457fe5b906000526020600020906006020190506000809054906101000a900460ff16151515610e1c57fe5b3373ffffffffffffffffffffffffffffffffffffffff168160020160009054906101000a900473ffffffffffffffffffffffffffffffffffffffff1673ffffffffffffffffffffffffffffffffffffffff1614151515610e7b57600080fd5b6000610e8561078b565b905060008410158015610e9757508084105b1515610ea257600080fd5b6000600385815481101515610eb357fe5b90600052602060002090600602019050600115158160010160009054906101000a900460ff161515141515610ee757600080fd5b338160010160016101000a81548173ffffffffffffffffffffffffffffffffffffffff021916908373ffffffffffffffffffffffffffffffffffffffff16021790555060008160010160006101000a81548160ff02191690831515021790555060019350505050919050565b60008060009054906101000a900460ff16151515610f6d57fe5b6000610f7761078b565b9050610f816112ff565b60e060405190810160405280888152602001600115158152602001600073ffffffffffffffffffffffffffffffffffffffff1681526020018773ffffffffffffffffffffffffffffffffffffffff16815260200185815260200186815260200183815250905060038190806001815401808255809150509060018203906000526020600020906006020160009091929091909150600082015181600001908051906020019061103192919061143a565b5060208201518160010160006101000a81548160ff02191690831515021790555060408201518160010160016101000a81548173ffffffffffffffffffffffffffffffffffffffff021916908373ffffffffffffffffffffffffffffffffffffffff16021790555060608201518160020160006101000a81548173ffffffffffffffffffffffffffffffffffffffff021916908373ffffffffffffffffffffffffffffffffffffffff1602179055506080820151816003015560a082015181600401908051906020019061110692919061143a565b5060c08201518160050155505050600180600082825401925050819055508192505050949350505050565b60038181548110151561114057fe5b9060005260206000209060060201600091509050806000018054600181600116156101000203166002900480601f0160208091040260200160405190810160405280929190818152602001828054600181600116156101000203166002900480156111ec5780601f106111c1576101008083540402835291602001916111ec565b820191906000526020600020905b8154815290600101906020018083116111cf57829003601f168201915b5050505050908060010160009054906101000a900460ff16908060010160019054906101000a900473ffffffffffffffffffffffffffffffffffffffff16908060020160009054906101000a900473ffffffffffffffffffffffffffffffffffffffff1690806003015490806004018054600181600116156101000203166002900480601f0160208091040260200160405190810160405280929190818152602001828054600181600116156101000203166002900480156112ef5780601f106112c4576101008083540402835291602001916112ef565b820191906000526020600020905b8154815290600101906020018083116112d257829003601f168201915b5050505050908060050154905087565b60e06040519081016040528060608152602001600015158152602001600073ffffffffffffffffffffffffffffffffffffffff168152602001600073ffffffffffffffffffffffffffffffffffffffff1681526020016000815260200160608152602001600081525090565b828054600181600116156101000203166002900490600052602060002090601f016020900481019282601f106113a457805485556113e1565b828001600101855582156113e157600052602060002091601f016020900482015b828111156113e05782548255916001019190600101906113c5565b5b5090506113ee91906114ba565b5090565b50805460018160011615610100020316600290046000825580601f106114185750611437565b601f01602090049060005260206000209081019061143691906114ba565b5b50565b828054600181600116156101000203166002900490600052602060002090601f016020900481019282601f1061147b57805160ff19168380011785556114a9565b828001600101855582156114a9579182015b828111156114a857825182559160200191906001019061148d565b5b5090506114b691906114ba565b5090565b6114dc91905b808211156114d85760008160009055506001016114c0565b5090565b9056fea165627a7a72305820a30233489a53f3942585f785ded95afa33bb2697f43b718d370ec1836f6760db0029",
  "source": "pragma solidity ^0.5.0;\n\ncontract Rental {\n\n    struct Car {\n        string make; // Car Model\n        bool isAvailable;  // if true, this car can be rented out\n        address rentee; // person delegated to\n        address owner; //Owner of Car\n        uint year;   // index of the voted proposal\n        string licenseNumber; // Car identification\n        uint carId; // index of car to be rented \n    }\n    \n    bool private stopped = false;\n    uint totCars = 0;\n    address private manager;\n\n     // The constructor. We assign the manager to be the creator of the contract.It could be enhanced to support passing maangement off.\n    \n    constructor() public  \n    {\n        manager = msg.sender;\n    }\n\n    //Check if sender isAdmin, this function alone could be added to multiple functions for manager only method calls\n    modifier isAdmin() {\n        assert(msg.sender == manager);\n        _;\n    }\n    \n\n\n    //Number of Cars available for rent\n    Car[] public rentals;                   //*****\n\n    //Return Total Number of Cars\n    function getCarCount() public view returns(uint) {\n        if(totCars == rentals.length)\n        return rentals.length;\n        else\n        return totCars;\n    }\n\n    //Renting a car \n    function rent(uint carId) public returns (bool) {\n\n        Car storage specificCar = rentals[carId];\n       \n       //Never Ever want to be false, therefore we use assert\n       assert(!stopped); \n\n       require(specificCar.owner != msg.sender);\n        \n        \n       //Validate cardId is within array\n      uint totalCars = getCarCount();\n      \n    //There must be a car to rent and ID # must be within range \n      require(carId >= 0 && carId < totalCars);\n    \n    //Reference to the car that will be rented \n    Car storage carToBeRented = rentals[carId];         //******\n\n    //Car must be available\n    require(carToBeRented.isAvailable == true);\n      \n      //Assign Rentee to Sender\n      carToBeRented.rentee = msg.sender;\n      \n      //Remove Availability\n      carToBeRented.isAvailable = false; \n      \n     //Return Success\n      return true;\n    }\n\n    // Retrieving the car data necessary for user\n    function getRentalCarInfo(uint carId) public view returns (string memory make, string memory license, address owner, address rentee, bool available, uint year, uint id) {\n      \n      uint totalCars = getCarCount();\n      require(carId >= 0 && carId < totalCars);\n      \n      //Get specified car \n      Car memory specificCar = rentals[carId];\n      \n      //Return data considered in rental process\n      return (specificCar.make,specificCar.licenseNumber, specificCar.owner ,specificCar.rentee, specificCar.isAvailable, specificCar.year , specificCar.carId);\n    }\n\n    //Add RentableCar\n    function addNewCar(string memory make, address owner, string memory licenseNumber, uint year) public returns (uint) {\n        assert(!stopped); \n        //Create car object within function\n        \n        //Current # of cars\n        uint count = getCarCount();\n        //Increment Count\n        //Construct Car Object\n        Car memory newCar = Car(make,true, address(0) , owner, year,licenseNumber,count);\n        \n        //Add to Array\n        rentals.push(newCar);\n\n        //Increment total cars \n        totCars += 1;\n        \n        return count;\n    }\n    \n    //Allow Car Owner to Mark car as returned\n    function returnCar(uint carId) public  returns (bool) {\n        assert(!stopped); \n        \n        //Get Specific car\n        Car storage specificCar = rentals[carId];\n        require(specificCar.owner == msg.sender);\n        //Make car available again\n        specificCar.isAvailable = true;\n        //Remove previous rentee\n        specificCar.rentee = address(0);\n        \n        //Return Success\n        return true;\n    }\n\n    function removeCar(uint carId) public returns (bool) {\n        assert(!stopped);\n\n        //Get Specific Car\n        Car storage specificCar = rentals[carId];\n        require(specificCar.owner == msg.sender && specificCar.isAvailable == true);\n        //Get total cars listed\n        uint n = getCarCount();\n        if(carId >= n) return false;\n\n        // Loop to remove car and move elements by 1\n        for(uint i = carId; i< n-1 ; i++){\n            rentals[i] = rentals[i+1];\n        }\n        \n        // Delete the car with carID\n        delete rentals[n-1];\n        totCars -=1 ;\n        return true;\n    }\n\n}",
  "sourcePath": "D:/Car-Rental-DApp/contracts/Rental.sol",
  "compiler": {
    "name": "solc",
    "version": "0.5.0+commit.1d4f565a.Emscripten.clang"
  },
  "schemaVersion": "3.0.1",
  "updatedAt": "2022-04-12T11:07:12.686Z",
  "devdoc": {
    "methods": {}
  },
  "userdoc": {
    "methods": {}
  }
}